:020000040800F2
:1000000010FF0120A10200084548000879440008BB
:1000100041480008A9090008B15500080000000087
:100020000000000000000000000000004D48000833
:100030008D0A0008000000004948000851480008E7
:10004000BB020008BB020008BB020008BB0200089C
:10005000BB020008BB020008BB020008BB0200088C
:10006000BB020008BB020008BB020008BB0200087C
:10007000BB020008BB020008750A0008BB020008AA
:10008000BB020008BB020008BB020008BB0200085C
:10009000BB020008BB020008BB020008BB0200084C
:1000A000BB020008BB020008BB020008BB0200083C
:1000B000BB020008BB020008BB020008BB0200082C
:1000C000BB020008BB020008BB020008BB0200081C
:1000D000BB020008BB020008BB020008854E0008F6
:1000E000910A0008BB020008BB020008BB0200081E
:1000F000BB020008BB020008BB020008BB020008EC
:10010000BB020008BB020008BB020008BB020008DB
:10011000BB020008BB0200081D490008BB02000822
:10012000BB020008810A0008BB020008BB020008ED
:10013000BB0200080000000000000000BB02000835
:10014000BB020008BB020008BB020008BB0200089B
:10015000BB020008BB020008BB020008BB0200088B
:10016000BB020008BB020008BB020008BB0200087B
:10017000BB020008BB020008490A0008000000009A
:1001800000000000BB0200080000000000000000AA
:10019000BB0200080000000000000000BB020008D5
:1001A000000000000000000000000000BB0200088A
:1001B000BB020008BB020008BB020008BB0200082B
:1001C000BB02000800F002F800F05AF814A696E806
:1001D000000CB244B344DA4501D100F051F8BAE85A
:1001E0000F000FA696E83000A5EB040504EB060708
:1001F000AAEB0704A7F101074FEA15154FEA3414DB
:10020000A4F10104AC4201D300F03AF813F0010F5D
:1002100018BFFB1A43F0010300F001F8DBE71847B1
:1002200080770000A0770000103A24BF78C878C11A
:10023000FAD8520724BF30C830C144BF04680C60EC
:1002400070470000704700000023002400250026AE
:10025000103A28BF78C1FBD8520728BF30C148BF29
:100260000B607047642900F0FB80782900F034812E
:10027000002070471FB507F0DDFA1FBD10B510BD97
:1002800000F05CFB1146FFF7F5FF05F037FE00F0CC
:100290007AFB03B4FFF7F2FF03BC00F07DFB000024
:1002A0000948804709480047FEE7FEE7FEE7FEE70A
:1002B000FEE7FEE7FEE7FEE7FEE7FEE70448054946
:1002C000054A064B7047000009490008C5010008AF
:1002D00010F9012010FF012010FB012010FB01206C
:1002E00053EA020C00F069802DE9F04B4FF0000654
:1002F000002B1FBFB3FA83F503FA05F424FA05F6C1
:100300005E4012BF1643B2FA82F502FA05F4C5F157
:1003100020051EBF22FA05FC44EA0C04203556EAEB
:10032000044C4FEA144418BF641C4FF000084FF00F
:100330000009904271EB030C39D3002919BFB1FABF
:1003400081F701FA07F6B0FA80F700FA07F6C7F16D
:1003500020071EBF20FA07FC46EA0C062037B6FB32
:10036000F4FCA7EB0507103F07F01F0BCBF12006AD
:100370002CFA06F60CFA0BFB44BFB3460026202FDE
:10038000A4BF5E464FF0000B5BEA060C08BF4FF0BF
:10039000010B19EB0B0948EB0608ABFB027C06FBD3
:1003A00002CC0BFB03CCC01B71EB0C01C1E70B466D
:1003B000024641464846BDE8F08B13B5084318BFD6
:1003C0004FF0FF300146AFF30080BDE81C4070479E
:1003D0000FB41CB5074B06AA7B44694600900598EC
:1003E00000F08BFA0020694600F09AFA1CBC5DF818
:1003F00014FB0000450500002DE9F0410E460446BF
:10040000002020622046E168884730B3252805D0C7
:10041000D4E901219047206A401CF2E7E1682046B8
:1004200000278847050018D0A5F14100192802D8F7
:1004300020354FF400673246294620462760FFF7F3
:1004400011FF40B1012804D0F61D26F0070608363A
:10045000D8E7361DD6E72846DAE7206ABDE8F081FE
:100460002DE9F0410646002410687529314616A58D
:1004700010D0AFF30080002802DA404213A507E055
:1004800031688A0701D512A502E0490704D511A5F4
:10049000012401E0AFF3008000210A2206F12407C5
:1004A00009E0B0FBF2FCB0FBF2F302FB1C003030C1
:1004B00078541846491C0028F3D123462A46304672
:1004C000BDE8F04100F0BAB9000000002D000000C6
:1004D0002B0000002000000070B504460D462146A8
:1004E0001068AFF300802188090502D50F4A7A44CD
:1004F00002E00E4A7A440E32002104F1240305E0A2
:1005000000F00F060009965D5E54491C0028F7D1E3
:1005100020780023000704D5702D02D009B10223F2
:1005200011322046BDE8704000F088B95C730000CD
:100530002DE9F04F9B4616464FF00109C1B02091BE
:100540000090A9F1010920A85DF8295050F8290070
:10055000C5E04FEA6A0070432C185FEACA7100D107
:10056000801B5A46214627182846904700280EDD52
:10057000304646EA0501890765D022782978401E71
:1005800005F8012B04F8011BF7D1AD1BA41B5A463B
:10059000394620469047002823DD5A4639462846EA
:1005A000904700280EDD304646EA0501890751D004
:1005B0003A782978401E05F8012B07F8011BF7D17E
:1005C000AD1BBF1B304646EA0401890749D03A7883
:1005D0002178401E04F8012B07F8011BF7D1A41B5A
:1005E000BF1B314646EA0402B81B920740D003788D
:1005F0002278491E04F8013B00F8012BF7D12C4664
:10060000871BB84634445A46414620469047002846
:10061000F8DB5A464146BF1B384690470028F8DCB5
:10062000304646EA0401A7424FEA81712ED931B320
:100630003A782178401E04F8012B07F8011BF7D106
:10064000A41BBF1BDEE722682968001F04C502C483
:10065000F9D19AE73A682968001F04C502C7F9D1A1
:10066000AEE73A682168001F04C402C7F9D1B6E7B3
:1006700003682268091F08C404C0F9D1BFE73A68BB
:100680002168001F04C402C7F9D1D9E7E1B198F885
:1006900000202178401E04F8012B08F8011BF6D138
:1006A000A21B501BB0FBF6F0401EAAEB0001491E36
:1006B000884216DD0A2910DD20AB4DF8295043F899
:1006C000290009F1010918E0D8F800202168001F6D
:1006D00004C448F8041BF7D1E2E70A2810DD82467B
:1006E00037E70A2807DD4DF8292020AA42F829100B
:1006F00009F10109F3E70A2902DD15468A4628E7D0
:10070000B9F1000F7FF41DAF41B0BDE8F08F2DE9C6
:10071000F04799460F460646140039D0002F37D0CF
:100720000A2F01D9FFF704FF7F1E354607FB045847
:100730002CE02F46254400E03F1BB74205D34A4634
:100740002946384690470028F6DC44EA05003B1964
:1007500080070CD0002117E029180A1B0F6802E05F
:1007600011681151121B9A42FAD2001D1751A04272
:100770000CD2F1E76818027801E007780755001BF2
:100780009842FAD2491C0255A142F3D34545D0D331
:10079000BDE8F08710B5431C02E010F8011B71B1F1
:1007A0008107FAD14FF0013202C88C1A8C4314EA47
:1007B000C211F9D0C01A0A0603D0C01E10BDC01A5B
:1007C00010BD0A0401D0801E10BD0902FCD0401EDD
:1007D00010BD4FF0000200B51346944696462039EE
:1007E00022BFA0E80C50A0E80C50B1F12001BFF4EA
:1007F000F7AF090728BFA0E80C5048BF0CC05DF850
:1008000004EB890028BF40F8042B08BF704748BF9D
:1008100020F8022B11F0804F18BF00F8012B704711
:1008200070477047704710B500F080F8006810BD41
:1008300010B5044600F07AF8046010BD2DE9F047C9
:100840000D4699469246044600F124080168880640
:1008500004D5E06921F01001216000E00120A842E8
:1008600001DD471B00E00027A1697A1902EB0900AE
:10087000081AA0612078C00602D42046AFF3008099
:10088000002608E0D4E901211AF806009047206A02
:10089000401C761C20624E45F4DB2078C0060AD549
:1008A0002046AFF3008006E0D4E9012130209047D4
:1008B000206A401C2062381EA7F10107F4DC07E023
:1008C000D4E9012118F805009047206A401C2062F5
:1008D000281EA5F10105F3DC2046AFF30080207847
:1008E000000602D50220BDE8F0870120FBE70000EA
:1008F00001694A1C02610878704700B58FB0CDE9E4
:1009000001310021059105497944CDE903101146D3
:100910006846FFF771FD0FB000BD0000E5FFFFFF67
:100920000A6802F8010B0A6070470000004870472F
:100930001000002000487047100000207546FFF7A7
:10094000F9FFAE4605006946534620F0070085468C
:1009500018B020B5FFF7B2FCBDE820404FF000060C
:100960004FF000074FF000084FF0000BAC46ACE82A
:10097000C009ACE8C009ACE8C009ACE8C00921F086
:1009800007018D46704710B50446AFF3008020463E
:10099000BDE81040FFF77DBC01491820ABBEFEE763
:1009A0002600020070470000FEE70000806B816CAB
:1009B000496D02291CBF012180F8351000F096B85E
:1009C00010B5846BA36BA06C01680A6863B1A36B5C
:1009D000DB0717D112F4002214D0C968E26B01EBD7
:1009E000C201002216E000BF100319D408680003FA
:1009F00018D4E06BD4E9102303EB80000861A263F4
:100A000010E000BF0A6812030CD40969E26B01EB25
:100A1000C201012200F0BAFAA06B0138A06301E024
:100A2000606CC860A06B216C884218BF10BD206844
:100A3000C16841F00101C1600068800744BF012026
:100A400084F8350010BD000080B540F20040C4F2CB
:100A50000200012101F040F846F2C820C2F2000075
:100A600000F062FD46F27820C2F20000BDE880404E
:100A700000F040B846F22830C2F2000000F054BD49
:100A800046F2C820C2F2000000F04EBD70470000E0
:100A900043F61440C4F201000168890414D580B5FE
:100AA0004FF40051016040F27000C2F200000121D9
:100AB00001700020C4F20200202101F00DF804A012
:100AC00006F0A2FBBDE880404FF4005000F028BFC4
:100AD000425554544F4E20505245535345440A00FA
:100AE000EFF3108072B600BFFEE700007047000011
:100AF0007047000070B50446006840F6AD16056901
:100B0000C0F6000669071FD4A8072BD4E80639D41D
:100B1000280705D5206808214161204600F034FAF5
:100B2000E80708BF70BD21680868800703D5C8685A
:100B300020F01E00C860C86820F001022046CA608C
:100B4000BDE87040FFF7D4BF04214161E06C40F084
:100B50000200E06484F83510A06C066500F0D2FC59
:100B6000A807D3D521680222A06C4A61E16C41F04C
:100B70000101E164042184F83510066500F0C2FC2F
:100B8000E806C5D5206810214161204600F054F8E0
:100B90002807BFD4C4E70000002804BF0120704725
:100BA0002DE9F04F81B090F8351049B9002180F857
:100BB0003410044600F042F8204600F03FF820468A
:100BC000022180F8351090E802514FF207040B68BB
:100BD000CFF6E07423400B60D0E90443856943EA13
:100BE0000E032343D0E9086743EA0C0300F1280A07
:100BF0002B439AE8040633433B431A43D1F800B031
:100C000042EA090242EA0A0242EA0B0242EA080206
:100C10000A60B8F1100F04BFC2698A61CA6842F065
:100C20001E02CA6000210122C16480F8352001B093
:100C3000BDE8F04F08467047704700002DE9F043CB
:100C400087B0804600680021C5F205010027884270
:100C5000CDE90577CDE90377029703D007B0BDE86A
:100C6000F08300BF43F630000197C4F202004168F0
:100C7000002541F0010141604168C4F2020501F024
:100C80000101019101990197016802AE41F0100143
:100C9000016001684FF0020901F010010191019912
:100CA000019701680D2441F001010160016801F024
:100CB0000101019101990197016841F0040101606E
:100CC000016801F00401019101990197016841F067
:100CD00008010160016801F0080101910199019783
:100CE000016841F0400101600068314600F04000B9
:100CF000019001987020029005F58050CDE903978E
:100D00000597069400F018FE5020CDE90209284608
:100D10003146CDE90477069400F00EFE4FF4707072
:100D2000CDE9020905F500603146CDE90477069466
:100D300000F002FE0820CDE9020905F540603146C9
:100D4000CDE90477069400F0F7FD4FF40070CDE98B
:100D5000020905F5C0503146CDE90477069400F04C
:100D6000EBFD46F2C82546F22840C2F20005C4F267
:100D700002004FF480534FF480464FF000714FF45F
:100D8000806285E88300C5E905364FF4003005F13F
:100D900020034FF48074C5E903720421032287C342
:100DA0002846EC612F6300F0A1FC002818BFFFF774
:100DB00097FE4E2000210022C8F84850C5F8388020
:100DC00001F014FD4E2001F0FFFC07B0BDE8F083F8
:100DD00070B582B0044690F8340001284FF002004C
:100DE00078D04FF0010E84F834E084F83500D4F860
:100DF00000C0A06CDCF80050002645F48045CCF81B
:100E00000050DCF80050B6EB134F25F00205CCF88B
:100E10000050DCF8005041EA0501CCF8001040F623
:100E2000C11140F6AD15C0F60001C0F60005C16362
:100E3000C0E91356A663266404D10CF1280100F022
:100E400007FD3FE04164C4F838E0E3636264E16BAE
:100E5000B1F5803F28D30021E36B5B08E363A36B0C
:100E60005B00A363E36BB3F5803F1DD3E36B5B08CB
:100E7000E363A36B5B00A363E36BB3F5803F13D322
:100E8000E36B5B08E363A36B5B00A363E36BB3F506
:100E9000803F09D3E36B5B08E363A36B5B00A36351
:100EA000E36BB1EB134FD7D1A16B0239A163A16BF7
:100EB0002164E16BE66B02EB81030CF128010096E3
:100EC00000F06EF82068016841F001010160002027
:100ED00084F8340002B070BDB0B582B040F20801B1
:100EE000C2F20001096842F293424908C9F249225C
:100EF000A1FB02129108019190F8341002240129FB
:100F00003ED0012180F8341080F8354001680A682D
:100F100022F001020A60019A531E0193D2B10A68BD
:100F2000D20714D0019A531E01939AB10A68D207CE
:100F30000DD0019A531E019362B10A68D20706D000
:100F4000019A531E01932AB10A68D207E3D1002403
:100F500005E000BFC26C032442F02002C2640A68AC
:100F6000054622F480420A60816C084600F082FA4D
:100F7000E86CE864012085F83500002085F834002D
:100F8000204602B0B0BD000070470000D0F800C09D
:100F900010230020002A08BF0C234CF803107047D0
:100FA00070B58568802D05D14FF4807141650120B1
:100FB00070BD00BFC46B002C50D0446C002C4DD0D1
:100FC000C46C002C4AD090F83440012C4DD0012440
:100FD00080F8344090F83540012C43D1022480F849
:100FE000354000244465D0F800C0049CDCF8006063
:100FF00046F20C4E46F48026C4F2020ECCF8006095
:10100000CCF810300B46CCF80440402D04BF1346FA
:101010000A460EF14C018C45CCF80830CCF80C2077
:1010200026D946F28841C4F202018C4564D046F2CA
:101030007041C4F202018C4572D12021CEF800101B
:101040001021CEF800100821CEF800100421CEF8AF
:1010500000100121CEF80010EEE100BF40214165F3
:10106000012070BD002180F83410022070BD00BF47
:1010700046F20801C4F2020101F1B002944519D907
:1010800046F21043C4F2020346F228429C45C4F2E1
:10109000020200F08780944500F0808046F24046CE
:1010A000C4F20206B4450CBF4FF400144FF00064C4
:1010B00079E000BF01F1500246F2100E46F27003D3
:1010C0009445C4F2020EC4F2020353D99C4500F0C9
:1010D000CF8046F28804C4F20204A44500F0C08028
:1010E00046F2A004C4F20204A4450CBF4FF400145D
:1010F0004FF000644C60C1E04FF40061CEF8001086
:101100004FF48061CEF800104FF40071CEF800105B
:101110004FF48071CEF800104021CEF800108BE122
:101120000EF194014FF000628C4508BF4FF400129D
:10113000CEF800204FF0806208BF4FF48012CEF846
:1011400000204FF000728C4508BF4FF40022CEF80B
:1011500000204FF0807208BF4FF48022CEF80020AC
:101160004FF480028C4508BF4FF48032CEF8002047
:1011700062E100BFF44500F07F8046F22804C4F22B
:101180000204A44570D046F24004C4F20204A4450F
:101190000CBF4FF400144FF000646EE04FF4006495
:1011A00001E000BF20249C45C1F8004410D09445C4
:1011B0000AD046F24046C4F20206B4450CBF4FF4D2
:1011C00080144FF0806404E04FF4806401E000BFBD
:1011D00010249C45C1F8004410D094450AD046F232
:1011E0004046C4F20206B4450CBF4FF400244FF051
:1011F000007404E04FF4007401E000BF08249C4533
:10120000C1F8004410D094450AD046F24046C4F2DA
:101210000206B4450CBF4FF480244FF0807404E004
:101220004FF4807401E000BF04249C45C1F80044E1
:1012300012D094450CD046F24042C4F202029445CA
:101240000CBF4FF480324FF48002C1F80024F3E069
:101250004022C1F80024EFE00122C1F80024EBE0B5
:101260004FF400644C6009E04FF4006405E000BFF7
:1012700020244C6002E000BF20240C60944513D968
:101280009C452DD046F28804C4F20204A4451FD028
:1012900046F2A004C4F20204A4450CBF4FF480142B
:1012A0004FF080644C6021E0F4451DD046F22804E4
:1012B000C4F20204A4450FD046F24004C4F2020472
:1012C000A4450CBF4FF480144FF080640DE000BFC4
:1012D0004FF480644C6009E04FF4806405E000BF87
:1012E00010244C6002E000BF10240C60944513D918
:1012F0009C452DD046F28804C4F20204A4451FD0B8
:1013000046F2A004C4F20204A4450CBF4FF400242A
:101310004FF000744C6021E0F4451DD046F22804E3
:10132000C4F20204A4450FD046F24004C4F2020401
:10133000A4450CBF4FF400244FF000740DE000BF33
:101340004FF400744C6009E04FF4007405E000BFF6
:1013500008244C6002E000BF08240C60944513D9B7
:101360009C452DD046F28804C4F20204A4451FD047
:1013700046F2A004C4F20204A4450CBF4FF480243A
:101380004FF080744C6021E0F4451DD046F22804F3
:10139000C4F20204A4450FD046F24004C4F2020491
:1013A000A4450CBF4FF480244FF080740DE000BFC3
:1013B0004FF480744C6009E04FF4807405E000BF86
:1013C00004244C6002E000BF04240C60944513D94F
:1013D0009C452BD046F28802C4F2020294451FD0ED
:1013E00046F2A002C4F2020294450CBF4FF48032D0
:1013F0004FF480024A601FE0F4451BD046F22802F9
:10140000C4F2020294450FD046F24002C4F2020236
:1014100094450CBF4FF480324FF480020BE000BFC4
:1014200040224A6008E000BF402204E001224A60F6
:1014300002E000BF01220A60DCF8001041F0160152
:10144000CCF80010DCF8141041F08001CCF8141036
:10145000016C09B9806C28B1DCF8000040F008008C
:10146000CCF80000DCF8000040F00100CCF80000EF
:10147000002070BD70B5866D044600F03BFB94F80B
:101480003510022928D105462068216C026822F017
:1014900016020260426922F08002426109B9A16C21
:1014A00019B1016821F008010160016821F0010112
:1014B000016000BF20680068C00715D000F01AFB6B
:1014C000401B0628F6D320206065032084F83500F1
:1014D000002184F8341070BD802060650120002157
:1014E00084F8341070BD00BFE06D3F2101FA00F0B8
:1014F000B060012084F835000020002184F8341009
:1015000070BD000090F83510022909D1052180F83E
:1015100035100068016821F001010160002070476A
:101520008021416501207047F0B581B00021009114
:1015300040F20801C2F200010B68D0E9166148F2DE
:10154000B51537680822C1F64E358A403A42A3FBEA
:1015500005350CD003681C68640708D51C6824F0A6
:1015600004041C60B260426D42F001024265012237
:101570008A403A4208D003685B691B0604D5B26012
:10158000426D42F00202426504228A403A4208D08B
:1015900003681B689B0704D5B260426D42F00402E9
:1015A000426510228A403A4219D001680B681B0735
:1015B00015D5B2600B680A685B0309D4D20509D45B
:1015C0000A6822F008020A60016C29B907E000BF2E
:1015D000110341D4016C11B1044688472046C26D05
:1015E000202101FA02F33B4243D001680F68FF0655
:1015F0003FD5B36090F835700B68052F1CD123F0F0
:1016000016030B604B6923F080034B61036C0BB92D
:10161000836C1BB10B6823F008030B603F219140E2
:10162000B160012180F83510016D0022002980F899
:10163000342054D158E000BF0A685B0310D4D205AF
:1016400012D40A6822F010020A60012180F83510D5
:10165000002180F8341007E0816C0029BCD1BEE77E
:10166000110301D4416C00E0C16B11B104468847FD
:101670002046416DC1B3416DC9072ED0052180F8C8
:1016800035100168AA0A0B6823F001030B60009B68
:101690000133934200931AD80B68DB0717D0009BE5
:1016A00001339342009312D80B68DB070FD0009BE5
:1016B0000133934200930AD80B68DB0707D0009BE5
:1016C00001339342009302D80B68DB07DFD101217D
:1016D00080F83510002180F83410C16C21B101B0C0
:1016E000BDE8F040084700BF01B0F0BD2DE9F04172
:1016F000044600F0FFF9ECB10546022084F83500FD
:101700000020216884F83400086820F00100086097
:1017100021680868C00711D000F0ECF9401B0528CB
:10172000F6D9032520230320636584F83550BDE8EE
:10173000F08100BF0120BDE8F08100BF086848F2D9
:101740003F02CFF21002D4E9013500EA020C04F1A5
:101750000C0898E8C10143EA0C032B431843D4E971
:10176000072E304338431043626A40EA0E00042AD1
:1017700040EA08031CD1206BD4E90A2E40EA0E008F
:10178000184308604869BEF1000F20F0030040EAEA
:10179000020040F0040C11D0B8F5005F36D0B8F16B
:1017A000000F45D1022A46D0012A3BD032B942E08F
:1017B0000B60486920F0070040EA020C01F0F800D5
:1017C0004AF6AB221038CAF6AA22A0FB02231A0955
:1017D00047F68213C1F814C0C0F600039A5C40F2C9
:1017E000FF335F284FF03F0021EA030100FA02F0C7
:1017F00088BF0431C4E91612886000230125002047
:10180000636584F83550BDE8F08100BF032AD5D860
:10181000012540230120DFE802F0030E030500BF8D
:1018200082E700BFAEF1C070B0FA80F0400904E07A
:10183000032A04D3C2D1CEF300600028BED0012514
:1018400040230120636584F83550BDE8F081000035
:1018500090F834C0BCF1010F04BF0220704770B58E
:101860004FF0010C80F834C0D0F858E090F835C043
:10187000BCF1010F38D14FF0020C80F835C04FF0A9
:10188000000CC0F854C0D0F800C08468056CC06D6E
:10189000DCF80060402C26F48026CCF80060CCF800
:1018A00004300B4604BF13460A463F2101FA00F0FC
:1018B000CCF80830CCF80C20CEF80800DCF800009A
:1018C00040F01600CCF800002DB1DCF8000040F02C
:1018D0000800CCF80000DCF8000040F00100CCF873
:1018E0000000002070BD00BF002180F834100220ED
:1018F00070BD0000B0B5044600F0FCF8054640F2AB
:101900000000C2F200000078611C18BF044400BF50
:1019100000F0F0F8401BA042FAD3B0BD70470000C1
:1019200043F61441C4F201010A68024214BF086080
:101930007047FFF7F3BF00002DE9F04F83B000F1CF
:10194000200200F13E4741F60005009207F1FF77C3
:10195000C4F2020507224FEAB726A84208BF0622B2
:1019600000254FF000084FF00009062E38BF4FEA5F
:10197000B72201920AE000BF09F1010908F102084B
:10198000B9F1100F05F1040500F0A2800F680122E3
:1019900002FA09FE17EA0E0AEED0D1F804C00322BB
:1019A0000CF003077E1E02FA08F4012E6FEA040B06
:1019B00012D88468CE6804EA0B0406FA08F63443A9
:1019C0008460446824EA0E06CCF3001404FA09F497
:1019D0002643466004E000BF032F01D103271EE029
:1019E000C6688C6806EA0B0604FA08F42643022F40
:1019F000C66014D16FF00302009E02EA590756F840
:101A000007C005F01C040F220B69A2402CEA020259
:101A1000A3401A43F251D1F804C00CF00307026846
:101A200007FA08F302EA0B021A431CF4403F026073
:101A3000A2D0002243F644030292C4F202031A68C1
:101A400043F6004442F480421A601A68C4F201046A
:101A500002F480420292029A29F003024FF6084CE7
:101A60002244CFF6FF7C52F80C3005F00C070F260D
:101A7000BE40B343019E06FA07F73B4342F80C30E1
:101A8000A2684B6842EA0A0743F60C4CDE0258BFD4
:101A900022EA0A07A760C4F2010CDCF800209E02CB
:101AA00042EA0A0758BF22EA0A07CCF800706268C7
:101AB0009E0342EA0A0758BF22EA0A0767602268C3
:101AC000DB0342EA0A0758BF22EA0A07276053E706
:101AD00003B0BDE8F08F0000426902EA01039143C0
:101AE00041EA034181617047002A08BF090481610E
:101AF000704700004FF60C10C2F2010000687047FA
:101B0000002804BF01207047F0B581B0044690F86A
:101B10003D0028B9002084F83C00204600F0B0FDCC
:101B2000242084F83D002068016821F00101016053
:101B3000016841F400410160016821F40041016045
:101B400001F0B0FA636848F2A16CC0F2010C40F6F3
:101B50000011C0F23D0163453CBF48F28041C0F234
:101B60001E01884202D2012001B0F0BD4DF6836112
:101B7000C4F21B31A0FB01122168970CD1F804E0DC
:101B80004FF496762EF03F0545EA92454D60774337
:101B900048F638160D6AC0F24106A7FB067625F016
:101BA0003F07634538BF960C721C3A430A62CA6904
:101BB00048F2A0664CF6FF77C0F20106B34222EA73
:101BC00007020BD801385B00B0FBF3F001306FF374
:101BD0001F30042898BF04201BE000BFA76801380D
:101BE00057B119277B43B0FBF3F001306FF31F307F
:101BF00070B100F5804007E003EB4303B0FBF3F066
:101C000001306FF31F3018B100F5004001E000BF54
:101C100001201043C8610868D4E9072320F0C00000
:101C2000104318430860886848F2FF3204F10C073B
:101C300090438CCF18431043A6698860C86820F091
:101C4000FF0038433043C860086840F00100086076
:101C500000202021206484F83D10206384F83E0099
:101C600001B0F0BD2DE9F04182B01F46164688460E
:101C70000446FFF73FFF94F83D1020291ED105468A
:101C800020688169890715D5FFF734FF401B1928A3
:101C9000F6D900202021206384F83D1084F83E000E
:101CA000216C41F02001216484F83C00022002B044
:101CB000BDE8F08194F83C10012903D1022002B064
:101CC000BDE8F081012184F83C100168C90703D107
:101CD000016841F001010160016821F400610160C7
:101CE000222184F83D10102184F83E100021216447
:101CF00066626785618D21850021CFF6FF71E16203
:101D0000E16A026811F5803F42F48062026018BF08
:101D1000012919D1016841F4807101604169089E6F
:101D2000C90724D1711C18D0002E00F0C58000BF57
:101D3000FFF7E0FE401BB04200F2C080206841691E
:101D4000C907F5D013E000BF0829E3D0216B1129A2
:101D5000E0D0E3E74169C90709D14169C90706D164
:101D60004169C90704BF41695FEAC171F2D02169C5
:101D7000B1F5804F08D148F00101C9B20161416954
:101D8000890740F1C68001E1062101EAD81707F171
:101D9000F00101614169090732D44169721C14D014
:101DA000490500F1E980002E00F01082FFF7A2FE45
:101DB000401BB04200F20C822068416909071FD421
:101DC00041694905F2D5D7E04169490500F1D48060
:101DD0004169090714D44169490500F1CD80416981
:101DE00009070DD44169490500F1C6804169090719
:101DF00006D44169490500F1BF8041690907E3D56F
:101E00005FFA88F101614169890739D44169721C1F
:101E10004FEA415114D0002900F1AE80002E00F0AD
:101E2000D581FFF767FE401BB04200F2D1812068E8
:101E30004169890724D441694905F2D59CE000BF76
:101E4000002900F199804169890719D44169490540
:101E500000F192804169890712D44169490500F176
:101E60008B80416989070BD44169490500F1848061
:101E70004169890704D441694905E4D57CE000BF84
:101E800000210191416901918169019101990168E4
:101E900041F4807101604169C90734D1711C28D0B7
:101EA00056B1FFF727FE401BB04207D820684169B2
:101EB000C907F6D027E000BFFFF71CFE0020202155
:101EC000206384F83D1084F83E00216C41F020012D
:101ED0002164216884F83C000868C00544BF4FF4C1
:101EE00000702064012002B0BDE8F0814169C9079B
:101EF00009D14169C90706D14169C90704BF4169D0
:101F00005FEAC171F2D047F0F101016141698907CF
:101F10003CD44169721C4FEA415113D000292BD4A3
:101F2000002E00F05381FFF7E5FD401BB04200F2A8
:101F30004F8120684169890728D441694905F2D554
:101F40001AE000BF002917D4416989071ED44169EE
:101F5000490511D44169890718D4416949050BD451
:101F60004169890712D44169490505D44169890746
:101F70000CD441694905E7D5016841F4007101605D
:101F80006FF480614161042023E100BF218DD9B14C
:101F9000022911D001292DD1026822F48062026049
:101FA000002201924269019282690192019A0268BB
:101FB00042F40072026028E0026822F4806202604B
:101FC000026842F4006218E0002101914169019128
:101FD000816901910199016841F40071016020203B
:101FE00084F83D00002084F83E0084F83C0002B0F4
:101FF000BDE8F081026842F4806202600022019232
:102000004269019280690190019888B2032817D82B
:1020100002283FD0012851D1002E00F0998020687D
:10202000014651F8142F520600F196800868C00648
:1020300000F1F280FFF75EFD401BB042EFD9E0E017
:1020400086B100BF2068014651F8142F52060ED405
:102050000868C00600F1E080FFF74CFD401BB0426D
:10206000F0D9CEE020684169490640F1C38000699B
:10207000616A0870606A218D0130013960622185D2
:102080002268638D013B638553695B0770D51169D5
:10209000017064E020684169490745D4711C6BD028
:1020A000002E00F0CD80FFF725FD401BB04200F26E
:1020B000C980206841694907F5D535E02068416944
:1020C00049070ED4711C65D0002E00F0B980FFF7CF
:1020D00011FD401BB04200F2B580206841694907FC
:1020E000F5D5016821F4806101600069616A0870BA
:1020F000606A218D01300139606221852068618D1F
:1021000001396185416949070ED4711C50D0002EF8
:1021100000F09680FFF7EEFC401BB04200F2928088
:10212000206841694907F5D5016841F400710160F3
:102130000069616A0870606A2268411C6162218DD1
:1021400001392185618D013961851169417006E090
:102150002068416949064DD50069616A0870606A66
:10216000218D0130013960622185608D01386085E3
:1021700008047FF44AAF32E741694907D4D4416982
:1021800049075CBF41695FEA4171CDD441694907A4
:10219000F2D5C9E741694907A3D4416949075CBF42
:1021A00041695FEA41719CD441694907F2D598E7DA
:1021B00041694907B8D4416949075CBF41695FEA91
:1021C0004171B1D441694907F2D5ADE7FFF792FCFF
:1021D000202000212022216384F83D2084F83E1035
:1021E000226C1043206484F83C10012002B0BDE84A
:1021F000F08100BF50F8141FC90601460CD4FFF748
:1022000079FC00202021206384F83D1084F83E00F2
:10221000206C40F020000AE06FF010000860002001
:102220002021206384F83D1084F83E00206C206457
:10223000002084F83C00012002B0BDE8F08100BF1E
:10224000FFF758FC00202021206384F83D1084F81B
:102250003E00216C41F02001216484F83C00012003
:1022600002B0BDE8F08100002DE9F04381B01F46C7
:10227000164688460446FFF73DFC94F83D10202999
:102280001ED1054621688869800715D5FFF732FC05
:10229000401B1928F6D900202021206384F83D1026
:1022A00084F83E00216C41F02001216484F83C0058
:1022B000022001B0BDE8F08394F83C00012803D16E
:1022C000022001B0BDE8F083012084F83C000868DA
:1022D000C00703D1086840F001000860086820F4D6
:1022E00000600860212084F83D00102084F83E0042
:1022F0000020206466626785608D20850020CFF60F
:10230000FF70E062E06A10F5803F18BF012819D124
:10231000086840F4807008604869DDF82090C007C4
:1023200023D119F1010016D0B9F1000F00F07E8021
:10233000FFF7E0FB401B48457AD821684869C00791
:10234000F6D012E00828E3D0206B1228E0D0E3E7B3
:102350004869C00709D14869C00706D14869C00764
:1023600004BF48695FEAC070F2D02069B0F5804FC1
:1023700002D1FE2039E000BF062000EAD810F0307C
:102380000861486900072FD4486919F1010214D087
:1023900040057DD4B9F1000F00F03681FFF7AAFBAC
:1023A000401B484500F232812168486900071BD470
:1023B00048694005F2D56BE04869400568D4486932
:1023C000000711D44869400562D4486900070BD45E
:1023D000486940055CD44869000705D44869400550
:1023E00056D448690007E7D5FF2000EA08000861D5
:1023F0004869800756D4486919F101024FEA4050F4
:102400002CD0002844D4B9F1000F00F0FD80FFF774
:1024100071FB401B484500F2F9802168486980073C
:1024200040D448694005F2D532E000BFFFF762FBB7
:1024300000202021206384F83D1084F83E00216CA8
:1024400041F020012164216884F83C000868C0053F
:1024500044BF4FF4007020640EE100BF002817D481
:10246000486980071ED44869400511D4486980072F
:1024700018D4486940050BD44869800712D44869CC
:10248000400505D4486980070CD448694005E7D564
:10249000086840F4007008606FF4806048610420B0
:1024A000B5E000BF002000904A6900928A6900925E
:1024B000009A228D002A00F0998009F101080A464D
:1024C00052F8143F1B0637D4B8F1000F18D0B9F1F9
:1024D000000F00F0AD8000BF1068400500F1B08033
:1024E000FFF708FB401B484500F2A78021680A4619
:1024F00052F8140F00064FF00000EDD51CE000BFAD
:1025000013685B0500F19C8013681B0614D41368E4
:102510005B0500F1958013681B060DD413685B05FD
:1025200000F18E8013681B0606D413685B0500F16A
:10253000878013681B06E3D5676A3A4612F8013BA9
:102540000B616262628D013A6285268D0A46A6F1B0
:10255000010CA4F828C052F8143F5B070DD55FEAC0
:102560000C430AD07B78A6F1020C0B61BB1C6362A2
:10257000638D013B6385A4F828C013685B0731D4E1
:10258000B8F1000F16D0B9F1000F51D01068400516
:1025900056D4FFF7AFFA401B48454ED821680A468B
:1025A00052F8140F40074FF00000EFD5B4F828C0E0
:1025B00018E000BF13685B0542D413685B0711D4B1
:1025C00013685B053CD413685B070BD413685B0589
:1025D00036D413685B0705D413685B0530D41368E1
:1025E0005B07E7D55FEA0C427FF469AF0A6842F403
:1025F00000720A60202184F83D1084F83E0084F8BF
:102600003C0001B0BDE8F083FFF774FA2020002100
:102610002022216384F83D2084F83E10226C104370
:10262000206484F83C10012001B0BDE8F08300BFB5
:102630001068400504D4FFF75DFA202004E000BFD5
:102640006FF480601060042000212022216384F850
:102650003D2084F83E10226C1043206484F83C1026
:10266000206C042808D12068016841F400710160E1
:10267000012001B0BDE8F083012001B0BDE8F08386
:10268000B0B586B045F600010068C4F20001002430
:1026900088420594CDE903440294019402D006B027
:1026A000B0BD00BF43F630050094C4F202052868AF
:1026B000122240F020002860286800F020000090DE
:1026C00000980320029201220190CDE9032004200A
:1026D000059001F5DE3001A9FFF72EF90094286975
:1026E00040F480002861286900F480000090009880
:1026F00006B0B0BD40F200004FF60C11C2F200006F
:10270000C2F2010100780A681044086070470000B6
:1027100080B543F60040C4F20200016841F4007144
:102720000160016841F480610160016841F48071D9
:102730000160032000F086F8002000F005F800F0AA
:1027400027F8002080BD000070B540F20006C2F2FC
:10275000000640F208013278C2F200014FF47A73A9
:102760000968B3FBF2F20446B1FBF2F1084600F04F
:1027700001FF0F2C4FF0010508D838B94FF0FF309A
:1027800021460022002500F031F87460284670BD13
:1027900082B0002043F640010190C4F202014A6871
:1027A00042F480424A604A6802F480420192019AEF
:1027B0000090086840F080500860086800F0805081
:1027C0000090009802B07047002848BF704700F0A2
:1027D0001F01012202FA01F11C2202EAD0004EF28E
:1027E0000012CEF2000281507047000010B54EF684
:1027F0000C5CCEF2000CDCF80030C3F3022E8EF03D
:102800000704042C28BF0424BEF103034FF0FF3E4D
:102810000EFA04F438BF0023A14399400EFA03F3E3
:102820009A43114300F00F0200F160430901043A9A
:1028300003F564436244002848BF02F10C03197099
:1028400010BD00004EF60C51CEF200010A684FF6A2
:10285000FF031A4060F30A2242F0806040F0FD70EE
:102860000860704701220168C0F80025002280F846
:10287000F424886940F000608861486D40F0805021
:1028800040F0030200204A6570470000002804BFA2
:10289000012070472DE9F04F8BB08246056890F813
:1028A000BD0428B900208AF8BC04504600F0D0F8D6
:1028B00003208AF8BD04E86BC0055CBF0020CAF89D
:1028C0001000DAF8000002F039FEDAF800000AF130
:1028D00020090A90DAE90B64DAF834000AF1040EF0
:1028E00099E880039EE82E58CDE9084004A880E8C6
:1028F00080030A988DE82058079602F0DDFA002838
:1029000040F08880DAF800000021002502F01EFE69
:10291000DAF8041000295CD00AF13C004FF0010CF9
:102920000022002302EBC20200EB820700F82230F3
:10293000DAB201333A81DAB2914287F801C03D71CF
:10294000C7E90355BD61EDD80AF51F7000220025C7
:10295000002300BF05EBC50743F00105ECB200EB17
:102960008706A142727000F827303271C6E903224F
:10297000B2612ED904EBC40700F8275043F00205DA
:10298000ECB200EB8706A14272703271C6E90322F5
:10299000B2611ED904EBC40700F8275043F00305C9
:1029A000ECB200EB8706A14272703271C6E90322D5
:1029B000B2610ED904EBC407043300F82750DDB22E
:1029C00000EB8706A94272703271C6E90322B26138
:1029D000C0D8DAF80800DAF800200A90DAE90C40EA
:1029E000DAE905650AF11C0EDAE903379EE80058BA
:1029F000DAE90A89CDE9084002A880E820581046A3
:102A00000A9ACDE90076CDF81880CDF81C9002F036
:102A100053FB38B102208AF8BD0401200BB0BDE899
:102A2000F08F00BF00208AF8380001208AF8BD042A
:102A3000DAF82400012802D15046FFF713FFDAF834
:102A4000000002F029FB00200BB0BDE8F08F000071
:102A5000F0B59DB0044600201C90CDE91A00CDE9E8
:102A6000180001A804305821FDF7B3FE2068B0F12A
:102A7000A04F01D01DB0F0BD4FF48070019001A8AF
:102A800000F03EF8002818BFFEF72AF8002743F6AA
:102A900030060097C4F202063068002440F00100BE
:102AA00030603068C4F2020400F001000090009829
:102AB0004FF4E85018900220CDE9190703201B902D
:102AC0000A2018AD1C9020462946FEF735FF4FF42A
:102AD0000070CDE91807204629461A97FEF72CFF0B
:102AE000706840F0800070600097706940F480402A
:102AF0007061706900F48040009000981DB0F0BDD6
:102B00002DE9F04381B00446006843F68C06C10706
:102B1000C4F2020604D14FF0000981070CD415E07D
:102B20003168A26B21F0C06111433160B2FA82F1C9
:102B30004FEA5119810709D53168E26B21F0C05184
:102B400011433160002A08BF4FF00109410705D445
:102B50004FF00008010712D420E000BF3168226B5B
:102B600021F4401111433160B2FA82F14FEA511859
:102B7000B2F5801F08BF4FF0010901070ED531687B
:102B8000626B21F440011143B2F5800F316008BF40
:102B90004FF00109002A08BF4FF0010881065AD5FD
:102BA0000020009056F84C0C47F2000740F080508F
:102BB00046F84C0C56F84C0CC4F2000700F080505C
:102BC00000900098386840F480703860FEF792FFFB
:102BD000054600BF3868C00506D4FEF78BFF401BD2
:102BE0000228F7D990E100BF56F81C0C10F4407091
:102BF00017D0216C01F44071884212D056F81C0C99
:102C000040F64061C4F24721012220F440700A607E
:102C100000220A6046F81C0C56F81C0CC00740F055
:102C20007B812068216C56F8842C4FF6FF4701F415
:102C3000407322F4F812C0F6FF770F40B3F5407FDF
:102C400008BF3A4346F8842C56F81C2C6FF31F310A
:102C5000114346F81C1CC10610D4010619D44106C4
:102C60001FD4C10525D4810530D4410536D4B9F12E
:102C7000010F18BFB0F5006F3CD062E094F8580027
:102C800040F64061C4F24721C1F8A0032068010664
:102C9000E5D5B168E26C21F440011143B160410611
:102CA000DFD5B168A26C21F080611143B160C1052C
:102CB000D9D5B168626D21F000611143B160B2F104
:102CC000006F08BF4FF001088105CED5B168626C76
:102CD00021F080511143B1604105C8D5B268216D22
:102CE00022F000520A43B0F5006FB26018BFB1F194
:102CF000005F23D140F26809C4F247290020C9F8D7
:102D00000000FEF7F7FE054656F88C0C000105D5CD
:102D1000FEF7F0FE401B0228F6D9F5E02068C10757
:102D200002D0A16B00296FD0810702D5E16B002989
:102D30006AD0410700F17D807FE000BFB9F1010F4B
:102D4000D8D0B8F1000F4FF0000000F0DE80682707
:102D5000C4F24727B860FEF7CDFE054656F88C0C46
:102D6000800005D5FEF7C6FE401B0228F6D9CBE051
:102D70002068410701D5216B19B101071AD5616B94
:102D8000C1B956F8041CD4E9062301F44031656A40
:102D9000114341EA831141EA0561D4F82CC046F899
:102DA000041C31686FF0FF0221F4F85102EB0C2291
:102DB00011433160C00516D5606DB0F1006F12D1BE
:102DC00056F8040C226AD4E9061300F07060D203AE
:102DD0004FF6FF75AA430843A2F5803240EA8310FC
:102DE000104346F8040C0120B860FEF783FE044649
:102DF00056F88C0C800000F18B80FEF77BFE001BE8
:102E00000328F5D380E000BF56F8081C56F8082CBC
:102E1000D4E9013501F4403102F070621943676969
:102E2000114341EA851141EA077146F8081C410740
:102E300003D5216BB1F5801F05D001071FD5616B4C
:102E4000B1F5800F1BD156F8081C56F8082CD4E9B0
:102E5000013701F4403102F0E04219432569114382
:102E600041EA871141EA0561D4F828C046F8081CF8
:102E70003168ACF1010221F01F01114331604105BD
:102E80001FD5216DB1F1005F1BD1271D56F808CC6D
:102E900056F8082CA8CFFF034FF6FF7127EA01016F
:102EA0004FF0C06702F0E04207EA4C2707F10077D5
:102EB0001A433A43A1F5803142EA8512114346F89C
:102EC000081C000510D5271D8FCF40EA8110D103C3
:102ED0004FF6FF729143A1F5803140EA0360084349
:102EE00040EA077046F8080C0120C9F80000FEF718
:102EF00001FE054656F88C0C00013FF522AFFEF7A7
:102F0000F9FD401B0228F5D9032001B0BDE8F0838C
:102F1000002001B0BDE8F083FEF7ECFD054641F26C
:102F2000883700BF56F81C0C80073FF57AAEFEF7D5
:102F3000E1FD401BB8424FF00300F3D9E5E7000084
:102F4000002804BF012070472DE9F04143F608082E
:102F5000C4F202080446D8F8F8030D4600F00F004A
:102F6000884207D288F8F853D8F8F80300F00F0029
:102F7000A84277D12068810717D5410705D5D8F831
:102F8000001041F4E051C8F80010010705D5D8F849
:102F9000001041F46041C8F80010D8F80010A26891
:102FA00021F0F0011143C8F80010C00740D1D8F853
:102FB000F80300F00F00A84207D988F8F853D8F8B2
:102FC000F80300F00F00A8424CD12068410707D554
:102FD000D8F80010E26821F4E0511143C8F800105D
:102FE000000708D5D8F80000216920F4604040EAC5
:102FF000C100C8F8000000F07DF8D8F8001047F6CE
:103000007602C1F30311C0F60002515C40F20802DF
:1030100020FA01F140F20400C2F200000068C2F29E
:1030200000021160FFF790FB0020BDE8F08100BFB7
:103030006068811E022907D258F8081C89015CBF0C
:103040000120BDE8F08111E0012807D158F8081CE3
:1030500089035CBF0120BDE8F08107E058F8081C37
:10306000890703D40120BDE8F08100BFD8F8001023
:1030700021F003010843C8F80000FEF73BFD0646B7
:1030800041F28837D8F80000616800F00C00B0EB1E
:10309000810F8CD0FEF72EFD801BB842F2D90320A1
:1030A000BDE8F08140F2080043F60801C2F20000DA
:1030B000C4F202010068096847F68602C1F3822162
:1030C000C0F60002515CC8407047000040F20800A2
:1030D00043F60801C2F20000C4F202010068096868
:1030E00047F68602C1F34231C0F60002515CC84087
:1030F0007047000010B543F60404C4F2020460688F
:10310000C0F3810142F20040C0F2F400DFE801F0B8
:103110004202081841F20020C0F27A0010BD00BF40
:10312000216801F03F02216823684902C3F3881136
:1031300016D4A1FB00010023FDF7D2F817E000BF71
:10314000216801F03F02216823684902C3F3881116
:1031500014D4A1FB00010023FDF7C2F815E000BF65
:1031600041F20020C0F27A004843B0FBF2F021683F
:103170000222C1F3014102EB410109E041F20020CA
:10318000C0F27A004843B0FBF2F02168C1F302714B
:10319000B0FBF1F010BD0000002804BF0120704713
:1031A0002DE9F04182B00446007843F60006C007DE
:1031B000C4F202060CD0B06800F00C00042840F005
:1031C00089803068800303D56068002800F0508152
:1031D0002078800723D5B06810F00C0F11D0B068AC
:1031E00000F00C00082802D17068400209D5B068D0
:1031F00000F00C000C2840F09F807068400200F145
:103200009B803068800703D5E068012840F030815A
:103210003068216920F0F80040EAC1003060207871
:10322000000713D4207840072AD4A569002D00F0A8
:103230001A81B06800F00C00082840F0AB80012D26
:1032400040F0E880012002B0BDE8F081606900280C
:1032500040F20000C4F2472000F088800121C0F84D
:10326000801EFEF747FC0546706F8007DAD4FEF734
:1032700041FC401B0228F7D9032002B0BDE8F081D1
:10328000306C5FEAC0080AD400200190306C40F036
:1032900080503064306C00F080500190019847F20B
:1032A0000007C4F200073868C00537D4386840F416
:1032B00080703860FEF71EFC054600BF3868C00508
:1032C0002CD4FEF717FC401B0228F7D9032002B0CC
:1032D000BDE8F081B06800F00C00082803D17068E8
:1032E00040023FF56EAFB06800F00C000C2803D12F
:1032F000706840023FF565AF61683068B1F5803FA6
:1033000007D0B1F5A02F40F0CB8040F48020306092
:10331000306840F480303060CBE000BFA168306F8F
:10332000012905D0052957D140F004003067306FDE
:1033300040F00100306759E0E068002800F09C8010
:103340000020C4F2472001210160FEF7D3FB0546AF
:10335000306880073FF55CAFFEF7CCFB401B0228CE
:103360004FF00300F4D902B0BDE8F0810021C0F8AD
:10337000801EFEF7BFFB0546706F80077FF552AFDA
:10338000FEF7B8FB401B0228F6D9032002B0BDE8C7
:10339000F08100BF0027C4F2472700203866FEF7FF
:1033A000A9FB022D05460BD13068800140F19280C7
:1033B000FEF7A0FB401B02284FF00300F4D9D2E730
:1033C000306880014FD5FEF795FB401B02284FF077
:1033D0000300F5D9C7E700BF20F001003067306F68
:1033E000002920F00400306700F09880FEF782FB8F
:1033F000054641F2883700BF306F800700F1A0809A
:10340000FEF778FB401BB842F6D9032002B0BDE8B6
:10341000F08100BF7068E16900F480028A4227D120
:10342000216A00F03F028A4222D147F6C071626AE7
:103430000140B1EB821F1BD1A16A4FF6FF73C90394
:10344000994300F44032A1F580318A4210D1E16AFB
:1034500000F07062B2EB016F0AD1216B00F0E04026
:10346000B0EB017F04D1002002B0BDE8F08100BFC5
:10347000012002B0BDE8F0810020C4F24720002105
:103480000160FEF737FB0546306880077FF5C7AE61
:10349000FEF730FB401B02284FF00300F4D962E72F
:1034A00020F4803030603068002920F480203060C3
:1034B00050D0FEF71FFB0546306880033FF588AE0D
:1034C000FEF718FB401B6428F6D9032002B0BDE8C4
:1034D000F08100BF04F11C052FCD246B084340EAA6
:1034E0008210D9034FF6FF729143A1F5803140EA73
:1034F0000560084340EA0470706001203866FEF7FA
:10350000F9FA044630688001ADD4FEF7F3FA001BE7
:1035100002284FF00300F5D925E700BFFEF7EAFACD
:10352000054641F2883700BF306F800708D5FEF7A7
:10353000E1FA401BB8424FF00300F5D913E700BF92
:10354000B8F1000F3FF571AE306C20F08050306460
:103550006BE600BFFEF7CEFA054600BF3068800379
:103560007FF536AEFEF7C6FA401B64284FF0030025
:10357000F4D9F8E6411E0020B0EB116F1CBF01200A
:1035800070474EF21002CEF2000251604EF6235107
:10359000CEF20001F0230B7007219060116070479C
:1035A000704700007047000090F83C20012A04BFDB
:1035B00002207047B0B501F108053CCDD1E900CE3D
:1035C00023F47C5322F470521A432EF4F0431A432E
:1035D0002CF4E0431A4324F4C0431A432A43C96934
:1035E00022F48042036811435964002180F83C10A2
:1035F0000020B0BD90F83C20012A4FF0020254D0C8
:1036000010B580F83D200268D2F804E0D2F808C076
:103610000C682EF07003234341F2FF74C4F20004DF
:10362000A24253600EDC40F2FF73C4F200039A42E0
:1036300016DCB2F1804F2BD040F20043C4F20003FD
:1036400024E000BF40F2FF33C4F201039A4213DCCE
:1036500041F60003C4F200039A4219D0002313E09C
:1036600040F60003C4F200039A4211D040F6004332
:10367000C4F200030AE000BF44F20003C4F20103F5
:103680009A4205D040F20043C4F201039A4204D1A9
:1036900049682CF08003194391600121002280F8D1
:1036A0003D1080F83C20BDE81040104670470000F7
:1036B000002804BF0120704710B5044690F83D0073
:1036C00028B9002084F83C00204600F01FF80220B2
:1036D00084F83D002068211D01F026F9012084F8BE
:1036E000460084F83E0084F83F0084F8400084F8E7
:1036F000410084F8420084F8430084F8440084F8D0
:10370000450084F83D00002010BD0000006841F233
:103710000001C4F20001884218BF704780B582B032
:103720000020019043F64000C4F20200016800222C
:1037300041F0100101600068002100F010000190CC
:1037400001983620FFF752F8362002B0BDE88040DD
:10375000FFF73AB87047000010B5016804460869E1
:10376000800744BFC8685FEA807039D408694007A1
:1037700044BFC8685FEA40703ED40869000744BF90
:10378000C8685FEA007045D40869C00644BFC868CD
:103790005FEAC0604AD40869C0071CBFC8685FEA16
:1037A000C07051D10869000644BFC8685FEA006074
:1037B00052D40869400644BFC8685FEA406053D4E9
:1037C0000869800646BFC8685FEA806010BD6FF078
:1037D000200220460A61BDE81040FFF7E3BE00BFAB
:1037E0006FF002000861012020778869800743D0CC
:1037F0002046FFF7AFFF45E06FF0040008610220AC
:103800002077886910F4407F40D02046FFF7A2FF60
:1038100042E000BF6FF00800086104202077C8690B
:1038200080073DD02046FFF795FF3FE06FF0100086
:10383000086108202077C86910F4407F3AD02046FC
:10384000FFF788FF3CE000BF6FF0010008612046F1
:1038500000F04CFA2168A5E76FF08000086120466F
:10386000FFF79EFE2168A4E76FF040000861204644
:1038700000F03EFA2168A3E7204600F053F8204606
:1038800000F0AAF92168002020776FE7204600F0B9
:1038900049F8204600F0A0F92168002020776CE765
:1038A000204600F03FF8204600F096F921680020FD
:1038B000207769E7204600F035F8204600F08CF9C3
:1038C00021680020207766E780B586B00021006877
:1038D000C4F20101002288420592CDE9032202923E
:1038E000019201D006B080BD43F630000092C4F2D0
:1038F0000200036843F010030360006800F010004A
:10390000009000984FF4007001900220CDE902026F
:103910000120059001F5883001A90492FEF70CF80A
:1039200006B080BD7047000090F83C30012B04BF0A
:10393000022070474FEAB202032A00F2FF802DE90D
:10394000F043DFE802F003B13F7F00BF036840F2BD
:1039500000461A6A43F4806522F001021A621C6A6A
:103960001A46D3F804C052F818EF8F6824F0020406
:10397000C4F20106B54244EA070405D1CF6824F039
:103980000C0427F004073C430F68B54206D1D1E987
:1039900005582CF440762E4346EA080C2EF07306A8
:1039A0003743C3F804C09F614F6809695F631C62B5
:1039B0009F6947F008079F619F6927F004079F618F
:1039C000B1E000BF036840F200481A6A43F4806522
:1039D00022F480721A621C6A1A46D3F804C052F8A4
:1039E0001CEF8F6824F40074C4F20108454544EAD2
:1039F000072408D1CF6840F2FF463F0224F4406418
:103A000027EA06063443D1F80090454506D1D1E9AE
:103A100005562CF440572E4347EA061C2EF0730738
:103A200047EA0907C3F804C0DF614F680969DF632B
:103A30001C62DF6947F00807DF61DF6927F00407D0
:103A4000DF6170E0036840F200451A6A43F4806762
:103A500022F480521A621A46D3F820C05C6852F8E9
:103A60001C8FD1F800E08E68C4F20105AF4204D18A
:103A70004D6924F4804444EA85142CF4005747EA45
:103A8000063728F4E64646EA0E265C60DE614E689C
:103A900009691E641F62DF6947F40067DF61DF693F
:103AA00027F48067DF613DE0036840F200481A6A4E
:103AB00043F4806522F010021A621C6A1A46D3F899
:103AC00004C052F818EF8F6824F02004C4F20108F3
:103AD000454544EA071407D1CF686FF0400624F04B
:103AE000C00406EA07163443D1F80090454506D1D4
:103AF000D1E905562CF440672E4347EA860C2EF494
:103B0000E64747EA0927C3F804C09F614F6809697F
:103B10009F631C629F6947F400679F619F6927F458
:103B200080679F6109021368194311600021BDE895
:103B3000F043002280F83C20084670470121002213
:103B400080F83C2008467047002804BF01207047D9
:103B500010B5044690F83D0028B9002084F83C00D8
:103B6000204600F01FF8022084F83D002068211D47
:103B700000F0DAFE012084F8460084F83E0084F864
:103B80003F0084F8400084F8410084F8420084F843
:103B9000430084F8440084F8450084F83D00002088
:103BA00010BD000000680021C4F20101884218BF66
:103BB000704781B00020009043F64400C4F2020038
:103BC000016841F001010160006800F0010000900F
:103BD000009801B07047000070470000C1B104298F
:103BE00008D0082914BF41224022825C012A05D056
:103BF00016E000BF3F22825C012A11D1022208296F
:103C000010D0042914BF80F8412080F83F200BE039
:103C100090F83E20012A03D1022280F83E2003E0E2
:103C20000120704780F84020006801F01F01012248
:103C3000036A02FA01F123EA01020262026A1143F5
:103C400041F2FF72C4F20002904201620CDC40F2C9
:103C5000FF71C4F20001884214DCB0F1804F37D00C
:103C600040F2004116E000BF40F2FF31C4F2010112
:103C7000884215DC41F60001C4F20001884227D0D9
:103C8000002115E040F60001C4F2000188421FD077
:103C900040F60041C4F20001884219D01FE000BF85
:103CA00044F20001C4F20101884211D040F2004107
:103CB000C4F20101884212D1416C40F2004340F449
:103CC0008062C4F2010341F400419A42416406D18A
:103CD000816801F00701062904BF002070470168D0
:103CE00041F00101016000207047000070470000B2
:103CF00070470000704700007047000090F83D10CA
:103D000090F83E000843C0B270470000B0B582B0E2
:103D100001680A68CC684B6902F02F05202D04F079
:103D2000200505D125B102B0BDE8B04000F0B6BF16
:103D30005FEA027C1EBF03F0010E04F4907313EBE4
:103D40000E0341D1036BD50618D5012B16D114F003
:103D5000100313D0002201920A6801924A6801926E
:103D6000019A496949064BD4818DC28DC38D002BC0
:103D700018BF914240F0F28102B0B0BD13062DD5BC
:103D800014F080032AD090F83D20212AF4D18268D3
:103D9000B2F5805F03D10269002A00F06382026AF3
:103DA000531C036212784A60C28C013A1304C28425
:103DB000E2D1C86820F08000C860C86840F04000C8
:103DC000C86002B0B0BD00BFD30718BF14F4807341
:103DD00040F0CE80530700F1D180D6E05206CBD51B
:103DE00014F04002C8D0CA6822F04002CA60202104
:103DF00080F83D1002B0BDE8B04000F039BB00BF14
:103E0000826B11684B689DB2002DB5D0818D8D42BB
:103E1000B2D2C385D269B2F5807F00F0A18001687B
:103E200051E8031F026821F4807142E80313DBB1FB
:103E3000016851E8031F026821F4807142E803130E
:103E400093B1016851E8031F026821F4807142E8D0
:103E500003134BB1016851E8031F026821F480711C
:103E600042E80313002BDAD1016851E8051F02680C
:103E700021F0010142E80513BBB3016851E8051FB9
:103E8000026821F0010142E8051373B3016851E8AB
:103E9000051F026821F0010142E805132BB30168F8
:103EA00051E8051F026821F0010142E80513002BCB
:103EB000DAD11AE0016851E8051F026821F04001DB
:103EC00042E80513DBB1016851E8051F026821F0E3
:103ED000400142E8051393B1016851E8051F0268EB
:103EE00021F0400142E805134BB1016851E8051F7C
:103EF000026821F0400142E80513002BDAD12021AD
:103F000080F83E1000210163016851E8031F026838
:103F100021F0100142E80313DBB1016851E8031FEF
:103F2000026821F0100142E8031393B1016851E8DF
:103F3000031F026821F0100142E803134BB101682E
:103F400051E8031F026821F0100142E80313002B1F
:103F5000DAD1816B04460846FDF78CFAA18D204624
:103F6000C28D891A89B202B0BDE8B040FFF7C2BE67
:103F7000036C43F001030364530706D5BEF1000F41
:103F800003D0036C43F002030364930706D5BEF12C
:103F9000000F03D0036C43F004030364BCF1000F73
:103FA00006D55EEA050303D0036C43F008030364FF
:103FB000036C002B3FF4E0AE920605D525B1044614
:103FC00000F06CFE216820464969026C01F0400156
:103FD00002F00802891800F0B98000BF016851E8BA
:103FE000031F026821F4907142E80313BBB3016818
:103FF00051E8031F026821F4907142E8031373B380
:10400000016851E8031F026821F4907142E803132C
:104010002BB3016851E8031F026821F4907142E854
:104020000313002BDAD11AE0016851E8051F02687A
:1040300021F0010142E80513DBB1016851E8051FD9
:10404000026821F0010142E8051393B1016851E8CB
:10405000051F026821F0010142E805134BB1016818
:1040600051E8051F026821F0010142E80513002B09
:10407000DAD1016B012924D1016851E8031F0268DC
:1040800021F0100142E80313DBB1016851E8031F7E
:10409000026821F0100142E8031393B1016851E86E
:1040A000031F026821F0100142E803134BB10168BD
:1040B00051E8031F026821F0100142E80313002BAE
:1040C000DAD1202180F83E1000210163016849699E
:1040D000490640F1C180016851E8051F026821F0DE
:1040E000400142E80513DBB1016851E8051F026891
:1040F00021F0400142E8051393B1016851E8051F22
:10410000026821F0400142E805134BB1016851E813
:10411000051F026821F0400142E80513002BDAD1A7
:10412000816B002900F0988044F65D22C0F6000201
:10413000044608460A65FDF7E5F900283FF41CAE81
:10414000A06B016D02B0BDE8B04008470446FFF720
:10415000D3FD0020206402B0B0BD00BF891A00BFAB
:10416000026852E8032F036822F4907243E80325A3
:10417000BDB3026852E8032F036822F4907243E84B
:10418000032575B3026852E8032F036822F4907286
:1041900043E803252DB3026852E8032F036822F495
:1041A000907243E80325002DDAD11AE0026852E844
:1041B000052F036822F0010243E80525DDB10268FE
:1041C00052E8052F036822F0010243E8052595B166
:1041D000026852E8052F036822F0010243E8052532
:1041E0004DB1026852E8052F036822F0010243E84E
:1041F0000525002DDAD1202280F83E20002202631E
:10420000026852E8032F036822F0100243E80325F6
:10421000DDB1026852E8032F036822F0100243E880
:10422000032595B1026852E8032F036822F01002BB
:1042300043E803254DB1026852E8032F036822F0DA
:10424000100243E80325002DDAD189B202B0BDE89F
:10425000B040FFF74FBD00BF02B0BDE8B040FFF770
:104260004BBD00BF026A32F8023B6FF35F234B6025
:10427000026299E5002804BF0120704710B504468A
:1042800090F83D0028B9002084F83C00204600F05A
:1042900021F8242084F83D002068C16821F40051F1
:1042A000C160204600F07AFD2068016921F4904148
:1042B0000161416921F02A014161C16841F4005165
:1042C000C16000202021206484F83D1084F83E1055
:1042D00010BD0000F0B587B0044644F60000216828
:1042E000C4F20000002681420696CDE904660396DA
:1042F000029601D007B0F0BD43F630010196C4F23A
:1043000002010A69032742F480220A610A6900F562
:10431000E23002F480220192019A01960A6842F08A
:1043200008020A60096801F00801019101994FF43F
:10433000407102910221CDE903160721069102A9DD
:104340000597FDF7F9FA46F2283546F25800C2F211
:104350000005C4F202004FF00061402285E84700EA
:1043600004204FF48063C5E908602846C5E9043697
:10437000C5E90666C5E90A762E63FDF7B7F9002898
:1043800018BFFCF7ADFB2720002100226563AC635A
:10439000FEF72CFA2720FEF717FA07B0F0BD000051
:1043A00070470000B0B590F83D40202C0CD113466A
:1043B00000294FF0010218BF002B01D11046B0BDFB
:1043C00090F83C20012A01D10220B0BD012280F8E2
:1043D0003C200025212201628384C384056480F887
:1043E0003D20D0F834C044F6E53E44F69544C0F68E
:1043F000000EC0F600040268CCE90FE444F669241C
:10440000C0F60004CCE91345043204466046FDF7CB
:104410001FFA216820466FF040020A6084F83C5081
:10442000016851E8051F026841F0800142E8051368
:10443000DBB1016851E8051F026841F0800142E8E4
:10444000051393B1016851E8051F026841F080012E
:1044500042E805134BB1016851E8051F026841F0BD
:10446000800142E80513002BDAD100221046B0BDCE
:104470007047000070470000FEE7000080B546F27C
:1044800078200021C2F20000C5F20501002220239D
:104490004FF0800C80E80E10C0E904228261C0E970
:1044A0000822C0E90A220263FCF776FB002808BF55
:1044B00080BDEFF3108072B6FEE7000080B582B0D9
:1044C000002043F630010190C4F202010A6842F470
:1044D00080020A600A6802F480020192019A009048
:1044E0000868002240F4001008600868002100F409
:1044F0000010009000980E20FEF778F90E20FEF7CD
:1045000063F9392000210022FEF770F9392002B04A
:10451000BDE88040FEF758B92DE9F04786B0002786
:1045200043F630000597CDE90377CDE90177009791
:10453000C4F20200016841F6000A41F01001016076
:104540000168C4F2020A01F010010091009900977D
:104550000168AAF5A05541F004010160016800223C
:1045600001F00401009100990097016844F281086C
:1045700041F020010160016801F0200100910099E3
:104580000097016841F080010160016801F080013D
:10459000009100990097016841F0010101600168F4
:1045A00001F00101009100990097016841F00201BA
:1045B0000160016801F00201009100990097016813
:1045C00041F008010160016801F0080100910099C3
:1045D0000097016841F040010160006844F28101E8
:1045E00000F04000009000982846FDF77DFA504604
:1045F000402100224FF04009FDF776FA4FF40050B9
:1046000001904FF4881001AECDE90207AAF5805061
:104610003146FDF791F9012428463146CDF8048052
:10462000CDE902470497FDF787F950463146CDE9B9
:104630000194CDE90377FDF77FF98020CDE90107EB
:10464000504631460397FDF777F9282000210022D4
:10465000FEF7CCF82820FEF7B7F806B0BDE8F087E3
:1046600080B546F2883045F60001C2F20000C4F27F
:10467000000148F2A06200234FF4804CC0F2010216
:1046800080E80E00C0E9033CC0E90533C0E9073308
:10469000FDF736FA002808BF80BDEFF3108072B630
:1046A000FEE7000010B592B046F6E80000220021B7
:1046B000C2F20000C4F2010214238024CDE91011DB
:1046C0000791C0E90021C0E90213C0E90411846127
:1046D000FFF73AFA20B1EFF3108072B6FEE700BFA1
:1046E00046F6E800C2F2000010A9FEF783FF28B1E9
:1046F000EFF3108072B600BFFEE700BF60200990A4
:104700000A200A9046F6E8000024C2F2000009A937
:104710000022CDE90B44CDE90D440F94FFF704F9D5
:1047200020B1EFF3108072B6FEE700BF4FF40050E7
:10473000069046F6E800C2F2000001A90594CDE912
:104740000344CDE901440894FEF72EFF20B1EFF3B6
:10475000108072B6FEE700BF46F6E800C2F2000025
:10476000FFF7B2F812B010BD80B582B046F6301037
:1047700041F200020021C2F20000C4F200024FF632
:10478000FF73CDE90011C0E90021C0E90213816186
:10479000FEF78EFF20B1EFF3108072B6FEE700BF88
:1047A00046F63010C2F200006946FEF723FF28B13A
:1047B000EFF3108072B600BFFEE700BF02B080BD0D
:1047C00080B546F6781044F60001C2F20000C4F24B
:1047D000000100234FF00C0C4FF4E13280E80E0092
:1047E000C0E90333C0E905C3C361FFF743FD0028F7
:1047F00008BF80BDEFF3108072B600BFFEE7000077
:1048000080B546F2DC30C2F200004FF0A041062233
:10481000C0E90012022100220123C0E90312C0E90D
:104820000613C0E90822C0E90B32FEF72FF8002872
:1048300008BF80BDEFF3108072B600BFFEE7000036
:10484000FEE70000FEE70000704700007047000030
:10485000FDF750BF70B594B007AC20463421FBF78C
:10486000B8FF002543F640000695CDE90455CDE993
:1048700002550195C4F202000168022641F0805100
:104880000160006800F080500190019847F200003C
:104890000195C4F20000016841F4404101600068E4
:1048A00000F4404001900198012007904FF4A020AF
:1048B00008904FF480000E9004200F90A820CDE9BE
:1048C00010060720CDE9120620460D96FEF764FC7F
:1048D00020B1EFF3108072B6FEE700BF0F20CDE9E4
:1048E00002064FF4A05005904FF48050069002A8A5
:1048F00005210495FEF724FB20B1EFF3108072B67A
:10490000FEE700BF14B070BD4EF68850CEF2000036
:10491000016841F4700101607047000046F63010F4
:10492000C2F20000FEF718BF10B540F6FF3E036864
:10493000C4F2000E40F2004C7045C4F2010C25DCBC
:10494000B0F1804F2FD040F20042C4F200029042FA
:1049500029D040F60002C4F20002904223D041F672
:10496000FF72C4F20002904227DC70453ADCB0F1DD
:10497000804F5BD040F20042C4F20002904255D01A
:1049800040F60002C4F200024EE000BF40F60042D2
:10499000C4F20002904206D0604504D00022C4F266
:1049A00001029042DBD14A6823F07003134341F6C1
:1049B000FF72C4F200029042D7DD43F6FF72C4F2E8
:1049C0000102904220DC42F20002C4F20002904256
:1049D0002CD00022C4F20102904227D0604525D09D
:1049E00028E000BF40F60042C4F2000290421DD011
:1049F00041F60002C4F20002904217D041F6004294
:104A0000C4F2000210E000BF44F20002C4F201024E
:104A100090420BD044F60002C4F20102904205D04D
:104A200044F20042C4F20102904203D1CA6823F466
:104A30004073134323F080024B69D1F800E08C6887
:104A40001A430260C46240F48062C0F828E0624504
:104A500004BF096901630121416110BD806B002120
:104A6000C185C184FFF748B9806B01684A6990F835
:104A70003D30212B2DD112F080022AD00021C1849B
:104A8000016851E8031F026821F0C00142E80313E6
:104A9000DBB1016851E8031F026821F0C00142E860
:104AA000031393B1016851E8031F026821F0C001AC
:104AB00042E803134BB1016851E8031F026821F07B
:104AC000C00142E80313002BDAD1202180F83D1009
:104AD0000168496990F83E20222A40F07D8011F05B
:104AE000400179D00021C185016851E8031F0268A7
:104AF00021F4907142E80313BBB3016851E8031F2E
:104B0000026821F4907142E8031373B3016851E81D
:104B1000031F026821F4907142E803132BB301686C
:104B200051E8031F026821F4907142E80313002B3F
:104B3000DAD11AE0016851E8051F026821F001018D
:104B400042E80513DBB1016851E8051F026821F056
:104B5000010142E8051393B1016851E8051F02689D
:104B600021F0010142E805134BB1016851E8051F2E
:104B7000026821F0010142E80513002BDAD1016B34
:104B8000012924D1016851E8031F026821F01001B6
:104B900042E80313DBB1016851E8031F026821F00A
:104BA000100142E8031393B1016851E8031F026842
:104BB00021F0100142E803134BB1016851E8031FD3
:104BC000026821F0100142E80313002BDAD1202102
:104BD00080F83E1000210163016C41F01001016476
:104BE000FFF78AB80168806B0968C90548BFFFF7FD
:104BF0003FBC0021C18400BF016851E8051F026865
:104C000021F0800142E8051383B3016851E8051FD4
:104C1000026821F0800142E805133BB3016851E8C6
:104C2000051F026821F0800142E80513F3B1016815
:104C300051E8051F026821F0800142E80513002BAE
:104C4000DAD113E0016851E8031F026841F0400126
:104C500042E80313002B08BF7047016851E8031FA7
:104C6000026841F0400142E8031393B1016851E842
:104C7000031F026841F0400142E803134BB1016891
:104C800051E8031F026841F0400142E80313002B82
:104C9000D8D17047806BFFF7EDBB000081B090F872
:104CA0003E10222921D183680246B3F5805F09D1E5
:104CB00052F8281F52F8183C002B63D003685B6839
:104CC0000AE000BF52F8281F13B90369002BF5D082
:104CD00003685B6803F07F030B701168013111609A
:104CE000C18D01390A04C18502D001B0704700BFEF
:104CF0000168CA6822F02002CA60CA6822F4807281
:104D0000CA604A6922F001024A61202180F83E10FF
:104D1000016B01293ED10021016300BF016851E808
:104D2000031F026821F0100142E80313DBB10168A0
:104D300051E8031F026821F0100142E8031393B108
:104D4000016851E8031F026821F0100142E80313D3
:104D50004BB1016851E8031F026821F0100142E8DD
:104D60000313002BDAD101680A68D20606D50022A7
:104D700000920A680092496800910099818D01B003
:104D8000FEF7B8BF026852686FF35F2221F8022B6A
:104D90008162A5E701B0FFF703BB0000B0B5044690
:104DA000006804F108030ECB0569194325F440554A
:104DB0002A4302616269E3691143C268194349F2F7
:104DC0000C639A431143C1604169A26921F44071A7
:104DD00041F20043114340F48062C4F201039A425D
:104DE000416103D1FEF772F902E000BFFEF75AF904
:104DF000E1694FF69C7563681922C0F6FF75B1F53D
:104E0000004FA0FB02011FD15A00DB0FFBF768FA2D
:104E100048F21F51C5F2EB11A0FB01235A0905F11D
:104E2000805302FB0300322303EBC000A0FB01010F
:104E30004FF4F87000EA111000EB0210C1F34211B8
:104E4000084421688860B0BD9A009B0FFBF748FAC0
:104E500048F21F51C5F2EB11A0FB01235A0902FBD6
:104E60000500322303EB0010A0FB0101F02000EA53
:104E7000511000EB0210C1F343110844216888600F
:104E8000B0BD000046F67810C2F200000068C068AD
:104E900040060AD580B540F20040C4F202004FF44B
:104EA0008041FCF719FEBDE8804046F67810C2F25A
:104EB0000000FEF72BBF000082B00499DDF808C0A7
:104EC000012940F64051C0F203016FD1826B4FF6C9
:104ED000BF7322F480328263C268CFF6BD731A407A
:104EE000C260C2680B9B22F44012012BC26003D146
:104EF000C26842F48012C26000220092009A01321D
:104F00000092009A8A4200F2A9800269002A1ED407
:104F1000009A01320092009A8A4200F29F80026950
:104F2000002A14D4009A01320092009A8A4200F2B8
:104F300095800269002A0AD4009A01320092009AF0
:104F40008A4200F28B800269B2F1FF3FD6DC002278
:104F50000092026942F001020261009A013200925D
:104F6000009A8A427AD80269D2071AD0009A01328E
:104F70000092009A8A4271D80269D20711D0009A31
:104F800001320092009A8A4268D80269D20708D09A
:104F9000009A01320092009A8A425FD80269D207D1
:104FA000DBD10021BCF1010F72D169E0C268089B1E
:104FB00042F04002C26000220192019A0132019245
:104FC000019A8A4250D80269002A1BD4019A013200
:104FD0000192019A8A4247D80269002A12D4019AA2
:104FE00001320192019A8A423ED80269002A09D40C
:104FF000019A01320192019A8A4235D80269B2F1CE
:10500000FF3FDADC00220192026942F001020261F4
:10501000019A01320192019A8A4225D80269D20787
:105020001AD0019A01320192019A8A421CD802696F
:10503000D20711D0019A01320192019A8A4213D803
:105040000269D20708D0019A01320192019A8A427C
:105050000AD80269D207DBD1002106E00321BCF1A6
:10506000010F15D10CE000BF0321826B002B14BF90
:1050700022F4803242F480328263BCF1010F07D106
:10508000826842F006028260826842F020028260FA
:10509000084602B0704700000146D0F8000E20F02C
:1050A0000300C1F8000ED1F8040840F0020200200D
:1050B000C1F80428704700002DE9F04F83B0DDF8F7
:1050C0004C800E9F0022B8F1000F00F5006BC0F875
:1050D0000421C0F80821C0F80C21C0F81021C0F844
:1050E0001421C0F81821C0F81C21C0F82021C0F8F4
:1050F0002421C0F82821C0F82C21C0F83021C0F8A4
:105100003421C0F83821C0F83C2105D0866B46F424
:105110000016866312E000BFD0F8046846F002066D
:10512000C0F80468866B26F400168663066846F0AD
:1051300040060660066846F0800606600026C0F855
:10514000006ED0F80068012FC0F8006806D1DBF8C7
:105150000070002B18BF47F0010703E0DBF80030B8
:1051600043F00307DDF83CE0DDF8309040F64055B1
:10517000C0F203050023C0F800780193019B0133BE
:105180000193019BAB4249D80369002B1BD4019BBF
:1051900001330193019BAB4240D80369002B12D429
:1051A000019B01330193019BAB4237D80369002B6C
:1051B00009D4019B01330193019BAB422ED80369B3
:1051C000B3F1FF3FDADC002301934FF48463036102
:1051D000019B01330193019BAB421FD803699B06DE
:1051E0001AD5019B01330193019BAB4216D8036989
:1051F0009B0611D5019B01330193019BAB420DD856
:1052000003699B0608D5019B01330193019BAB42C7
:1052100004D803699B06DBD4002400E001240023AA
:105220000293029B01330293029BAB4248D803696D
:10523000002B1BD4029B01330293029BAB423FD84D
:105240000369002B12D4029B01330293029BAB42F1
:1052500036D80369002B09D4029B01330293029BC9
:10526000AB422DD80369B3F1FF3FDADC0023029390
:1052700010230361029B01330293029BAB421FD8B0
:105280000369DB061DD5029B01330293029BAB42EF
:1052900016D80369DB0614D5029B01330293029BE7
:1052A000AB420DD80369DB060BD5029B0133029399
:1052B000029BAB4204D80369DB06DBD401E000BFEC
:1052C00001244FF0000A0029CBF810A0CBF814A05D
:1052D000CBF81CA000F004810094D0F800394FF006
:1052E000006202EA13134FF67F354E1EC0F80039F4
:1052F000C0F810A9C0F8085976D08B1E032B06F011
:10530000030905D22024B9F1000F42D16CE000BF9F
:1053100026F0030700244FF0904E4FF67F384FF0F1
:10532000000C00BF00EB0C03D3F82059043F0EEA39
:10533000E575C3F82059C3F83049C3F82889D3F874
:1053400040590CF1800C0EEAE575C3F84059C3F8DA
:105350005049C3F84889D3F860590EEAE575C3F897
:105360006059C3F87049C3F86889D3F880590EEAC8
:10537000E575C3F88059C3F89049C3F88889D1D13D
:10538000DDF84C800CF120044FF67F35B9F1000FA9
:105390002AD000F510631D594FF0904C0CEAE575CA
:1053A0001F191D514FF67F3500244FF67F3EB9F18E
:1053B000010F3C61C7F808E016D03B6AB9F1020F53
:1053C0000CEAE3733B623C63C7F828E00CD03B6C0B
:1053D0004FF0904505EAE3733B6400234FF67F35B9
:1053E0003B654FF67F33BB64D0F8003BDDF83CE013
:1053F00002EA1313C0F8003B0023C0F8103BC0F8CA
:10540000085BDDF83090009C002E69D0023903293A
:1054100006F0030C04D22023BCF1000F3BD15FE067
:1054200026F0030300244FF090474FF67F3600210B
:105430004518D5F8202B043B07EAE272C5F8202B6B
:10544000C5F8304BC5F8286BD5F8402B01F1800129
:1054500007EAE272C5F8402BC5F8504BC5F8486B17
:10546000D5F8602B07EAE272C5F8602BC5F8704BDF
:10547000C5F8686BD5F8802B07EAE272C5F8802B77
:10548000C5F8904BC5F8886BD2D1009C01F1200380
:10549000BCF1000F24D000F53062D6584FF0904791
:1054A00007EAE676D118D65000264FF67F33BCF1D6
:1054B000010F0E618B6013D00A6ABCF1020F07EA7C
:1054C000E2720A620E638B620AD00A6C4FF090435C
:1054D00003EAE2720A6400220A654FF67F328A64A8
:1054E000DBF81010B9F1000F21F48071CBF8101027
:1054F0006FF08041C0F818A0416103D1816941F08B
:1055000010018161816943F60002C8F23C02114337
:10551000BEF1000F816103D0816941F00801816112
:10552000B8F1010F05D1816941F0804141F00401DA
:105530008161204603B0BDE8F08F0000014680681D
:1055400020F0010200208A6070470000B0B50446D8
:10555000C06820F0C040E06091B1012926D1E06828
:10556000002540F00050E0600120FCF7C3F96069BD
:10557000C00705F1010014D1312D0546F4D310E028
:10558000E068002540F08040E06000BF0120FCF7AB
:10559000B1F96069C00705F1010002D0312D05465F
:1055A000F4D33238B0FA80F04009B0BD0120B0BD6C
:1055B000FEE70000000000002DE9F04F99B093468F
:1055C0000E68046882688B6807961092554236040C
:1055D0006242D0F810C0D1F810E04FEA03480E92B2
:1055E00072431693121408FB05F302EB23424FEAB1
:1055F0000E4ACCF1000311930AFB03F3139502EB5F
:1056000023428B698569CDF824E00B934FEA034E62
:105610006B420D930EFB03F302EB23425742CA6920
:105620000A9505924D694B68CA684168CDF830C04B
:10563000D0F81C90D0F814C0C06804944C42CBF849
:105640000070039406FB04F744420F963F14029443
:1056500008FB04F6CCF10004CDF850A007EB264679
:105660000AFB04F7C9F1000A06EB27460EFB0AF70E
:1056700006EB274602FB00F71897169F7642784301
:1056800017901098CBF804604743504308901004DB
:1056900003FB01F21692079A069751431091049961
:1056A0001F044A43594307910E990092139A794374
:1056B00009144243099B01EB224205FB0CF11391B3
:1056C00003FB0CF10E910C992E0403FB01FC6943C2
:1056D00009911199019406FB01F3059CCDF854E062
:1056E00002EB234E0B9A04FB09F1119102FB09F125
:1056F0000C910A99CDF8488002FB01F304FB01F9F3
:105700000D994FEA044808FB01F50EEB2545039976
:105710006D42CBF80C5007FB01F50299019A2D144C
:10572000414305EB214106FB02F501EB254108FB56
:105730000AF501EB25414942CBF810100021CBF8C6
:105740000810CBF814100F9A0099079D51430914C3
:105750007D4301EB2541DDF848A0069DDDF850E0D2
:105760000AFB05F501EB2541089D454301EB254169
:105770000EFB0CF501EB2541099D4FF4803C754370
:1057800001EB2541159DCBF820C06B4301EB234174
:1057900008FB09F301EB2341109B49425343169A3E
:1057A0001B145743179A03EB27430AFB02F7189A77
:1057B00003EB274350430E9A03EB20400EFB02F30A
:1057C000139A00EB234006FB02F30C9A00EB2340F4
:1057D00005FB02F3119A00EB234008FB02F200EBF9
:1057E0002240424202FB02F301FB01F01B0C03EBDF
:1057F0001040CBF81810CBF81C20A8B101F0E3FE44
:1058000041EC100B01F017FD9FED231B53EC102B07
:1058100051EC110B01F04CFD01F0A6FE0BF1180C40
:105820009CE8061001E000BF0120DBE90076DBE91F
:10583000025347433F14CBF8007006FB00F73F14B8
:10584000CBF8047005FB00F73F14CBF80870434316
:10585000DBF810701B14CBF80C3007FB00F3DBF8FF
:10586000147041431B140914CBF8103007FB00F3EC
:10587000CBF8181002FB00F10CFB00F01B1409140C
:105880000014CBF81430CBF81C10CBF8200019B062
:10589000BDE8F08F00BF00BF000000000000F04036
:1058A00002680B689A421CBFD01A7047406849686A
:1058B000401A70472DE9F04FADF6C47D292A1746EE
:1058C000089273DB29294FF0000270DB1326059341
:1058D000089B01FB060B152601FB060C01EB81045E
:1058E000143BA1F1140E4FEA410900EB84004FF084
:1058F00014080DF2F47A07930BE000BF1446F92A5E
:1059000066DC079B08F10208CB44CC449845484428
:1059100054DA089B48F001049C42F2DA152503E0B2
:105920006B1C02357345E9DA441914F8016C812EB9
:10593000F6D38D42F4DA0BEB050616F8023C16F8A6
:10594000017C0026802B88BF01261BF80530802FA4
:1059500088BF0136802B14F8023C88BF0136802BAB
:10596000435D88BF0136802B0CEB050388BF0136F1
:1059700013F8024C13F8013C802C88BF0136802BB1
:105980001CF8053088BF0136802B88BF0136082EF1
:10599000C6D10AEBC2046B1EC4F80480541C4AF83A
:1059A0003230F82A2246BBDD12E000BF002202F0AE
:1059B00001000DF6C47DBDE8F08F00BF1446042A37
:1059C00006DA002202F001000DF6C47DBDE8F08F7A
:1059D00045F6A103C0F60003504621460822FAF717
:1059E00096FE04F00300069024F00300089009A836
:1059F000A0F1080100F1040C4FF0000E0025049402
:105A0000079112E06A1C5AF83B0009AB43F83200D8
:105A10000898D9F804100EF1040E551C03EBC208C7
:105A20008645C8F8041000F0B580022D0AEBCE08B8
:105A30001DDB079A5AF83E00D8F8041002EBC506A1
:105A4000344656F8087D54F8043CD4E90024A1EB10
:105A5000030BD21B02FB0BF2E31A3C1A03FB0422DA
:105A6000002A04DC022DA5F10105E9DC012509ABC2
:105A70005AF83E10D8F804204EF0010B03EBC50095
:105A8000012D0AEBCB0843F8351042601EDB5AF8B3
:105A90003B60D8F80410A81C0CEBC5052B4655F844
:105AA0000C7C55E9013455F8082DDB1BA1EB0209EC
:105AB00003FB09F3A21ABC1B02FB0432002A07DC19
:105AC00001380228EADC012503E000BF013500E0CF
:105AD000451E09AB5AF83B10D8F804204EF00209D5
